{
  "_format": "hh-sol-artifact-1",
  "contractName": "ImprovedSlippageBot",
  "sourceName": "contracts/ImprovedSlippageBot.sol",
  "abi": [
    {
      "inputs": [
        {
          "internalType": "address",
          "name": "_uniswapRouter",
          "type": "address"
        },
        {
          "internalType": "address",
          "name": "_token",
          "type": "address"
        }
      ],
      "stateMutability": "nonpayable",
      "type": "constructor"
    },
    {
      "inputs": [
        {
          "internalType": "address",
          "name": "owner",
          "type": "address"
        }
      ],
      "name": "OwnableInvalidOwner",
      "type": "error"
    },
    {
      "inputs": [
        {
          "internalType": "address",
          "name": "account",
          "type": "address"
        }
      ],
      "name": "OwnableUnauthorizedAccount",
      "type": "error"
    },
    {
      "anonymous": false,
      "inputs": [
        {
          "indexed": true,
          "internalType": "address",
          "name": "pair",
          "type": "address"
        },
        {
          "indexed": false,
          "internalType": "uint256",
          "name": "liquidity",
          "type": "uint256"
        }
      ],
      "name": "LiquidityCheck",
      "type": "event"
    },
    {
      "anonymous": false,
      "inputs": [
        {
          "indexed": true,
          "internalType": "address",
          "name": "previousOwner",
          "type": "address"
        },
        {
          "indexed": true,
          "internalType": "address",
          "name": "newOwner",
          "type": "address"
        }
      ],
      "name": "OwnershipTransferred",
      "type": "event"
    },
    {
      "anonymous": false,
      "inputs": [
        {
          "indexed": true,
          "internalType": "address",
          "name": "sender",
          "type": "address"
        },
        {
          "indexed": false,
          "internalType": "uint256",
          "name": "amountIn",
          "type": "uint256"
        },
        {
          "indexed": false,
          "internalType": "uint256",
          "name": "amountOut",
          "type": "uint256"
        }
      ],
      "name": "TokenSwapped",
      "type": "event"
    },
    {
      "anonymous": false,
      "inputs": [
        {
          "indexed": true,
          "internalType": "address",
          "name": "owner",
          "type": "address"
        },
        {
          "indexed": false,
          "internalType": "uint256",
          "name": "amount",
          "type": "uint256"
        }
      ],
      "name": "Withdrawal",
      "type": "event"
    },
    {
      "inputs": [
        {
          "internalType": "address",
          "name": "pair",
          "type": "address"
        }
      ],
      "name": "checkLiquidity",
      "outputs": [
        {
          "internalType": "uint256",
          "name": "liquidity",
          "type": "uint256"
        }
      ],
      "stateMutability": "view",
      "type": "function"
    },
    {
      "inputs": [],
      "name": "owner",
      "outputs": [
        {
          "internalType": "address",
          "name": "",
          "type": "address"
        }
      ],
      "stateMutability": "view",
      "type": "function"
    },
    {
      "inputs": [],
      "name": "renounceOwnership",
      "outputs": [],
      "stateMutability": "nonpayable",
      "type": "function"
    },
    {
      "inputs": [
        {
          "internalType": "address",
          "name": "_token",
          "type": "address"
        }
      ],
      "name": "setToken",
      "outputs": [],
      "stateMutability": "nonpayable",
      "type": "function"
    },
    {
      "inputs": [
        {
          "internalType": "address",
          "name": "_uniswapRouter",
          "type": "address"
        }
      ],
      "name": "setUniswapRouter",
      "outputs": [],
      "stateMutability": "nonpayable",
      "type": "function"
    },
    {
      "inputs": [
        {
          "internalType": "address[]",
          "name": "path",
          "type": "address[]"
        },
        {
          "internalType": "uint256",
          "name": "amountIn",
          "type": "uint256"
        },
        {
          "internalType": "uint256",
          "name": "amountOutMin",
          "type": "uint256"
        }
      ],
      "name": "swapTokens",
      "outputs": [],
      "stateMutability": "nonpayable",
      "type": "function"
    },
    {
      "inputs": [],
      "name": "token",
      "outputs": [
        {
          "internalType": "contract IERC20",
          "name": "",
          "type": "address"
        }
      ],
      "stateMutability": "view",
      "type": "function"
    },
    {
      "inputs": [
        {
          "internalType": "address",
          "name": "newOwner",
          "type": "address"
        }
      ],
      "name": "transferOwnership",
      "outputs": [],
      "stateMutability": "nonpayable",
      "type": "function"
    },
    {
      "inputs": [],
      "name": "uniswapRouter",
      "outputs": [
        {
          "internalType": "contract IUniswapV2Router",
          "name": "",
          "type": "address"
        }
      ],
      "stateMutability": "view",
      "type": "function"
    },
    {
      "inputs": [
        {
          "internalType": "uint256",
          "name": "amount",
          "type": "uint256"
        }
      ],
      "name": "withdraw",
      "outputs": [],
      "stateMutability": "nonpayable",
      "type": "function"
    },
    {
      "stateMutability": "payable",
      "type": "receive"
    }
  ],
  "bytecode": "0x60806040523480156200001157600080fd5b5060405162001a7238038062001a72833981810160405281019062000037919062000277565b33600073ffffffffffffffffffffffffffffffffffffffff168173ffffffffffffffffffffffffffffffffffffffff1603620000ad5760006040517f1e4fbdf7000000000000000000000000000000000000000000000000000000008152600401620000a49190620002cf565b60405180910390fd5b620000be816200014960201b60201c565b5081600160006101000a81548173ffffffffffffffffffffffffffffffffffffffff021916908373ffffffffffffffffffffffffffffffffffffffff16021790555080600260006101000a81548173ffffffffffffffffffffffffffffffffffffffff021916908373ffffffffffffffffffffffffffffffffffffffff1602179055505050620002ec565b60008060009054906101000a900473ffffffffffffffffffffffffffffffffffffffff169050816000806101000a81548173ffffffffffffffffffffffffffffffffffffffff021916908373ffffffffffffffffffffffffffffffffffffffff1602179055508173ffffffffffffffffffffffffffffffffffffffff168173ffffffffffffffffffffffffffffffffffffffff167f8be0079c531659141344cd1fd0a4f28419497f9722a3daafe3b4186f6b6457e060405160405180910390a35050565b600080fd5b600073ffffffffffffffffffffffffffffffffffffffff82169050919050565b60006200023f8262000212565b9050919050565b620002518162000232565b81146200025d57600080fd5b50565b600081519050620002718162000246565b92915050565b600080604083850312156200029157620002906200020d565b5b6000620002a18582860162000260565b9250506020620002b48582860162000260565b9150509250929050565b620002c98162000232565b82525050565b6000602082019050620002e66000830184620002be565b92915050565b61177680620002fc6000396000f3fe6080604052600436106100955760003560e01c8063bea9849e11610059578063bea9849e14610160578063cd36d9fc14610189578063ebc0b049146101c6578063f2fde38b146101ef578063fc0c546a146102185761009c565b8063144fa6d7146100a15780632e1a7d4d146100ca578063715018a6146100f3578063735de9f71461010a5780638da5cb5b146101355761009c565b3661009c57005b600080fd5b3480156100ad57600080fd5b506100c860048036038101906100c39190610e31565b610243565b005b3480156100d657600080fd5b506100f160048036038101906100ec9190610e94565b61028f565b005b3480156100ff57600080fd5b5061010861046d565b005b34801561011657600080fd5b5061011f610481565b60405161012c9190610f20565b60405180910390f35b34801561014157600080fd5b5061014a6104a7565b6040516101579190610f4a565b60405180910390f35b34801561016c57600080fd5b5061018760048036038101906101829190610e31565b6104d0565b005b34801561019557600080fd5b506101b060048036038101906101ab9190610e31565b61051c565b6040516101bd9190610f74565b60405180910390f35b3480156101d257600080fd5b506101ed60048036038101906101e891906110e8565b610719565b005b3480156101fb57600080fd5b5061021660048036038101906102119190610e31565b610bc0565b005b34801561022457600080fd5b5061022d610c46565b60405161023a9190611178565b60405180910390f35b61024b610c6c565b80600260006101000a81548173ffffffffffffffffffffffffffffffffffffffff021916908373ffffffffffffffffffffffffffffffffffffffff16021790555050565b610297610c6c565b6000600260009054906101000a900473ffffffffffffffffffffffffffffffffffffffff1673ffffffffffffffffffffffffffffffffffffffff166370a08231306040518263ffffffff1660e01b81526004016102f49190610f4a565b602060405180830381865afa158015610311573d6000803e3d6000fd5b505050506040513d601f19601f8201168201806040525081019061033591906111a8565b90508181101561037a576040517f08c379a000000000000000000000000000000000000000000000000000000000815260040161037190611232565b60405180910390fd5b600260009054906101000a900473ffffffffffffffffffffffffffffffffffffffff1673ffffffffffffffffffffffffffffffffffffffff1663a9059cbb33846040518363ffffffff1660e01b81526004016103d7929190611252565b6020604051808303816000875af11580156103f6573d6000803e3d6000fd5b505050506040513d601f19601f8201168201806040525081019061041a91906112b3565b503373ffffffffffffffffffffffffffffffffffffffff167f7fcf532c15f0a6db0bd6d0e038bea71d30d808c7d98cb3bf7268a95bf5081b65836040516104619190610f74565b60405180910390a25050565b610475610c6c565b61047f6000610cf3565b565b600160009054906101000a900473ffffffffffffffffffffffffffffffffffffffff1681565b60008060009054906101000a900473ffffffffffffffffffffffffffffffffffffffff16905090565b6104d8610c6c565b80600160006101000a81548173ffffffffffffffffffffffffffffffffffffffff021916908373ffffffffffffffffffffffffffffffffffffffff16021790555050565b6000808273ffffffffffffffffffffffffffffffffffffffff16630dfe16816040518163ffffffff1660e01b8152600401602060405180830381865afa15801561056a573d6000803e3d6000fd5b505050506040513d601f19601f8201168201806040525081019061058e91906112f5565b905060008373ffffffffffffffffffffffffffffffffffffffff1663d21220a76040518163ffffffff1660e01b8152600401602060405180830381865afa1580156105dd573d6000803e3d6000fd5b505050506040513d601f19601f8201168201806040525081019061060191906112f5565b905060008273ffffffffffffffffffffffffffffffffffffffff166370a08231866040518263ffffffff1660e01b815260040161063e9190610f4a565b602060405180830381865afa15801561065b573d6000803e3d6000fd5b505050506040513d601f19601f8201168201806040525081019061067f91906111a8565b905060008273ffffffffffffffffffffffffffffffffffffffff166370a08231876040518263ffffffff1660e01b81526004016106bc9190610f4a565b602060405180830381865afa1580156106d9573d6000803e3d6000fd5b505050506040513d601f19601f820116820180604052508101906106fd91906111a8565b905080821161070c578061070e565b815b945050505050919050565b8180600260009054906101000a900473ffffffffffffffffffffffffffffffffffffffff1673ffffffffffffffffffffffffffffffffffffffff166370a08231336040518263ffffffff1660e01b81526004016107769190610f4a565b602060405180830381865afa158015610793573d6000803e3d6000fd5b505050506040513d601f19601f820116820180604052508101906107b791906111a8565b10156107f8576040517f08c379a00000000000000000000000000000000000000000000000000000000081526004016107ef9061136e565b60405180910390fd5b600260009054906101000a900473ffffffffffffffffffffffffffffffffffffffff1673ffffffffffffffffffffffffffffffffffffffff166323b872dd3330866040518463ffffffff1660e01b81526004016108579392919061138e565b6020604051808303816000875af1158015610876573d6000803e3d6000fd5b505050506040513d601f19601f8201168201806040525081019061089a91906112b3565b50600260009054906101000a900473ffffffffffffffffffffffffffffffffffffffff1673ffffffffffffffffffffffffffffffffffffffff1663095ea7b3600160009054906101000a900473ffffffffffffffffffffffffffffffffffffffff16856040518363ffffffff1660e01b815260040161091a929190611252565b6020604051808303816000875af1158015610939573d6000803e3d6000fd5b505050506040513d601f19601f8201168201806040525081019061095d91906112b3565b506000600160009054906101000a900473ffffffffffffffffffffffffffffffffffffffff1673ffffffffffffffffffffffffffffffffffffffff1663d06ca61f85876040518363ffffffff1660e01b81526004016109bd929190611483565b600060405180830381865afa1580156109da573d6000803e3d6000fd5b505050506040513d6000823e3d601f19601f82011682018060405250810190610a039190611576565b9050828160018351610a1591906115ee565b81518110610a2657610a25611622565b5b60200260200101511015610a6f576040517f08c379a0000000000000000000000000000000000000000000000000000000008152600401610a669061169d565b60405180910390fd5b600160009054906101000a900473ffffffffffffffffffffffffffffffffffffffff1673ffffffffffffffffffffffffffffffffffffffff166338ed1739858360018551610abd91906115ee565b81518110610ace57610acd611622565b5b60200260200101518833426040518663ffffffff1660e01b8152600401610af99594939291906116bd565b6000604051808303816000875af1158015610b18573d6000803e3d6000fd5b505050506040513d6000823e3d601f19601f82011682018060405250810190610b419190611576565b503373ffffffffffffffffffffffffffffffffffffffff167fd5a1cd88ddd329cc1ddf861a21708efa9ef3136b88e1420c21f91ef6f95ad024858360018551610b8a91906115ee565b81518110610b9b57610b9a611622565b5b6020026020010151604051610bb1929190611717565b60405180910390a25050505050565b610bc8610c6c565b600073ffffffffffffffffffffffffffffffffffffffff168173ffffffffffffffffffffffffffffffffffffffff1603610c3a5760006040517f1e4fbdf7000000000000000000000000000000000000000000000000000000008152600401610c319190610f4a565b60405180910390fd5b610c4381610cf3565b50565b600260009054906101000a900473ffffffffffffffffffffffffffffffffffffffff1681565b610c74610db7565b73ffffffffffffffffffffffffffffffffffffffff16610c926104a7565b73ffffffffffffffffffffffffffffffffffffffff1614610cf157610cb5610db7565b6040517f118cdaa7000000000000000000000000000000000000000000000000000000008152600401610ce89190610f4a565b60405180910390fd5b565b60008060009054906101000a900473ffffffffffffffffffffffffffffffffffffffff169050816000806101000a81548173ffffffffffffffffffffffffffffffffffffffff021916908373ffffffffffffffffffffffffffffffffffffffff1602179055508173ffffffffffffffffffffffffffffffffffffffff168173ffffffffffffffffffffffffffffffffffffffff167f8be0079c531659141344cd1fd0a4f28419497f9722a3daafe3b4186f6b6457e060405160405180910390a35050565b600033905090565b6000604051905090565b600080fd5b600080fd5b600073ffffffffffffffffffffffffffffffffffffffff82169050919050565b6000610dfe82610dd3565b9050919050565b610e0e81610df3565b8114610e1957600080fd5b50565b600081359050610e2b81610e05565b92915050565b600060208284031215610e4757610e46610dc9565b5b6000610e5584828501610e1c565b91505092915050565b6000819050919050565b610e7181610e5e565b8114610e7c57600080fd5b50565b600081359050610e8e81610e68565b92915050565b600060208284031215610eaa57610ea9610dc9565b5b6000610eb884828501610e7f565b91505092915050565b6000819050919050565b6000610ee6610ee1610edc84610dd3565b610ec1565b610dd3565b9050919050565b6000610ef882610ecb565b9050919050565b6000610f0a82610eed565b9050919050565b610f1a81610eff565b82525050565b6000602082019050610f356000830184610f11565b92915050565b610f4481610df3565b82525050565b6000602082019050610f5f6000830184610f3b565b92915050565b610f6e81610e5e565b82525050565b6000602082019050610f896000830184610f65565b92915050565b600080fd5b6000601f19601f8301169050919050565b7f4e487b7100000000000000000000000000000000000000000000000000000000600052604160045260246000fd5b610fdd82610f94565b810181811067ffffffffffffffff82111715610ffc57610ffb610fa5565b5b80604052505050565b600061100f610dbf565b905061101b8282610fd4565b919050565b600067ffffffffffffffff82111561103b5761103a610fa5565b5b602082029050602081019050919050565b600080fd5b600061106461105f84611020565b611005565b905080838252602082019050602084028301858111156110875761108661104c565b5b835b818110156110b0578061109c8882610e1c565b845260208401935050602081019050611089565b5050509392505050565b600082601f8301126110cf576110ce610f8f565b5b81356110df848260208601611051565b91505092915050565b60008060006060848603121561110157611100610dc9565b5b600084013567ffffffffffffffff81111561111f5761111e610dce565b5b61112b868287016110ba565b935050602061113c86828701610e7f565b925050604061114d86828701610e7f565b9150509250925092565b600061116282610eed565b9050919050565b61117281611157565b82525050565b600060208201905061118d6000830184611169565b92915050565b6000815190506111a281610e68565b92915050565b6000602082840312156111be576111bd610dc9565b5b60006111cc84828501611193565b91505092915050565b600082825260208201905092915050565b7f496e73756666696369656e7420636f6e74726163742062616c616e6365000000600082015250565b600061121c601d836111d5565b9150611227826111e6565b602082019050919050565b6000602082019050818103600083015261124b8161120f565b9050919050565b60006040820190506112676000830185610f3b565b6112746020830184610f65565b9392505050565b60008115159050919050565b6112908161127b565b811461129b57600080fd5b50565b6000815190506112ad81611287565b92915050565b6000602082840312156112c9576112c8610dc9565b5b60006112d78482850161129e565b91505092915050565b6000815190506112ef81610e05565b92915050565b60006020828403121561130b5761130a610dc9565b5b6000611319848285016112e0565b91505092915050565b7f496e73756666696369656e7420746f6b656e2062616c616e6365000000000000600082015250565b6000611358601a836111d5565b915061136382611322565b602082019050919050565b600060208201905081810360008301526113878161134b565b9050919050565b60006060820190506113a36000830186610f3b565b6113b06020830185610f3b565b6113bd6040830184610f65565b949350505050565b600081519050919050565b600082825260208201905092915050565b6000819050602082019050919050565b6113fa81610df3565b82525050565b600061140c83836113f1565b60208301905092915050565b6000602082019050919050565b6000611430826113c5565b61143a81856113d0565b9350611445836113e1565b8060005b8381101561147657815161145d8882611400565b975061146883611418565b925050600181019050611449565b5085935050505092915050565b60006040820190506114986000830185610f65565b81810360208301526114aa8184611425565b90509392505050565b600067ffffffffffffffff8211156114ce576114cd610fa5565b5b602082029050602081019050919050565b60006114f26114ed846114b3565b611005565b905080838252602082019050602084028301858111156115155761151461104c565b5b835b8181101561153e578061152a8882611193565b845260208401935050602081019050611517565b5050509392505050565b600082601f83011261155d5761155c610f8f565b5b815161156d8482602086016114df565b91505092915050565b60006020828403121561158c5761158b610dc9565b5b600082015167ffffffffffffffff8111156115aa576115a9610dce565b5b6115b684828501611548565b91505092915050565b7f4e487b7100000000000000000000000000000000000000000000000000000000600052601160045260246000fd5b60006115f982610e5e565b915061160483610e5e565b925082820390508181111561161c5761161b6115bf565b5b92915050565b7f4e487b7100000000000000000000000000000000000000000000000000000000600052603260045260246000fd5b7f536c69707061676520746f6f2068696768000000000000000000000000000000600082015250565b60006116876011836111d5565b915061169282611651565b602082019050919050565b600060208201905081810360008301526116b68161167a565b9050919050565b600060a0820190506116d26000830188610f65565b6116df6020830187610f65565b81810360408301526116f18186611425565b90506117006060830185610f3b565b61170d6080830184610f65565b9695505050505050565b600060408201905061172c6000830185610f65565b6117396020830184610f65565b939250505056fea2646970667358221220b71ce1799c0767bc5b13052e683ad3fa16e1b43bacbd4d2d9e36de098974d78e64736f6c63430008140033",
  "linkReferences": {},
  "deployedLinkReferences": {}
}